{
  "contractName": "Client",
  "abi": [
    {
      "inputs": [
        {
          "internalType": "string",
          "name": "client_name",
          "type": "string"
        },
        {
          "internalType": "address",
          "name": "clientAddress",
          "type": "address"
        }
      ],
      "stateMutability": "nonpayable",
      "type": "constructor"
    },
    {
      "anonymous": false,
      "inputs": [
        {
          "indexed": true,
          "internalType": "address",
          "name": "termsheet",
          "type": "address"
        },
        {
          "indexed": true,
          "internalType": "address",
          "name": "supplier",
          "type": "address"
        },
        {
          "indexed": false,
          "internalType": "string",
          "name": "signature",
          "type": "string"
        }
      ],
      "name": "AcceptTermsheet",
      "type": "event"
    },
    {
      "anonymous": false,
      "inputs": [
        {
          "indexed": true,
          "internalType": "address",
          "name": "client",
          "type": "address"
        },
        {
          "indexed": true,
          "internalType": "address",
          "name": "supplier",
          "type": "address"
        },
        {
          "indexed": true,
          "internalType": "address",
          "name": "commande",
          "type": "address"
        }
      ],
      "name": "Request",
      "type": "event"
    },
    {
      "inputs": [
        {
          "internalType": "uint256",
          "name": "",
          "type": "uint256"
        }
      ],
      "name": "commande_list",
      "outputs": [
        {
          "internalType": "address",
          "name": "",
          "type": "address"
        }
      ],
      "stateMutability": "view",
      "type": "function",
      "constant": true
    },
    {
      "inputs": [
        {
          "internalType": "address",
          "name": "",
          "type": "address"
        }
      ],
      "name": "commandes",
      "outputs": [
        {
          "internalType": "contract Commande",
          "name": "",
          "type": "address"
        }
      ],
      "stateMutability": "view",
      "type": "function",
      "constant": true
    },
    {
      "inputs": [
        {
          "internalType": "address",
          "name": "product_address",
          "type": "address"
        },
        {
          "internalType": "address",
          "name": "supplier_address",
          "type": "address"
        },
        {
          "internalType": "uint256",
          "name": "unity",
          "type": "uint256"
        }
      ],
      "name": "sendRequestToSupplier",
      "outputs": [],
      "stateMutability": "nonpayable",
      "type": "function"
    },
    {
      "inputs": [
        {
          "internalType": "address",
          "name": "commande_address",
          "type": "address"
        }
      ],
      "name": "getCommande",
      "outputs": [
        {
          "components": [
            {
              "internalType": "address",
              "name": "client",
              "type": "address"
            },
            {
              "internalType": "address",
              "name": "supplier",
              "type": "address"
            },
            {
              "internalType": "address",
              "name": "product",
              "type": "address"
            },
            {
              "internalType": "uint256",
              "name": "unity",
              "type": "uint256"
            },
            {
              "internalType": "uint256",
              "name": "date_creation",
              "type": "uint256"
            }
          ],
          "internalType": "struct CommandeLib.CM",
          "name": "",
          "type": "tuple"
        }
      ],
      "stateMutability": "view",
      "type": "function",
      "constant": true
    },
    {
      "inputs": [
        {
          "internalType": "string",
          "name": "signature",
          "type": "string"
        },
        {
          "internalType": "address",
          "name": "ts_address",
          "type": "address"
        },
        {
          "internalType": "address",
          "name": "supplier",
          "type": "address"
        }
      ],
      "name": "signeTermSheet",
      "outputs": [],
      "stateMutability": "nonpayable",
      "type": "function"
    }
  ],
  "bytecode": "0x608060405234801561001057600080fd5b50604051610d3a380380610d3a83398101604081905261002f9161012b565b60408051808201909152600160a060020a038216808252602080830185905260008054600160a060020a031916909217825584516100739160019190870190610090565b505060028054600160a060020a0319163317905550610225915050565b828054600181600116156101000203166002900490600052602060002090601f016020900481019282601f106100d157805160ff19168380011785556100fe565b828001600101855582156100fe579182015b828111156100fe5782518255916020019190600101906100e3565b5061010a92915061010e565b5090565b61012891905b8082111561010a5760008155600101610114565b90565b6000806040838503121561013d578182fd5b825167ffffffffffffffff80821115610154578384fd5b81850186601f820112610165578485fd5b8051925081831115610175578485fd5b604051601f8401601f191681016020018381118282101715610195578687fd5b6040528381528184016020018810156101ac578586fd5b6101bd8460208301602085016101dd565b8095505050505060208301516101d28161020d565b809150509250929050565b60005b838110156101f85781810151838201526020016101e0565b83811115610207576000848401525b50505050565b600160a060020a038116811461022257600080fd5b50565b610b06806102346000396000f3fe608060405234801561001057600080fd5b5060043610610084576000357c01000000000000000000000000000000000000000000000000000000009004806360b7ba821161006d57806360b7ba82146100b1578063b6f10123146100da578063cdca2e23146100fa57610084565b80631ba4e2cd1461008957806340891f6f1461009e575b600080fd5b61009c6100973660046104a6565b61010d565b005b61009c6100ac366004610466565b610177565b6100c46100bf36600461044a565b610279565b6040516100d191906106b8565b60405180910390f35b6100ed6100e83660046105be565b6103a2565b6040516100d191906105d6565b6100ed61010836600461044a565b6103d6565b8073ffffffffffffffffffffffffffffffffffffffff168273ffffffffffffffffffffffffffffffffffffffff167f54dd3ab812607df2275d792067ac89cae5ae6dd7595e089686d462062d842f548560405161016a919061062e565b60405180910390a3505050565b600033838584604051610189906103fe565b61019694939291906105f7565b604051809103906000f0801580156101b2573d6000803e3d6000fd5b5073ffffffffffffffffffffffffffffffffffffffff80821660008181526003602052604080822080547fffffffffffffffffffffffff00000000000000000000000000000000000000009081168517909155600480546001810182559084527f8a35acfbc15ff81a39ae7d344fd709f28e8600b4aa8c65c6b64bfe7fe36bd19b018054909116841790558154905194955091938784169392909216917f748ab010e834f6026f43074efec29fdb60a155d402bc5b8cd5908b43c8c6076d9190a450505050565b61028161040b565b73ffffffffffffffffffffffffffffffffffffffff8083166000908152600360205260409020548391166102ea576040517f08c379a00000000000000000000000000000000000000000000000000000000081526004016102e190610681565b60405180910390fd5b73ffffffffffffffffffffffffffffffffffffffff808416600090815260036020526040908190205481517f1f70c2860000000000000000000000000000000000000000000000000000000081529151921691631f70c2869160048082019260a092909190829003018186803b15801561036357600080fd5b505afa158015610377573d6000803e3d6000fd5b505050506040513d601f19601f8201168201806040525061039b9190810190610553565b9392505050565b600481815481106103af57fe5b60009182526020909120015473ffffffffffffffffffffffffffffffffffffffff16905081565b60036020526000908152604090205473ffffffffffffffffffffffffffffffffffffffff1681565b6103768061075b83390190565b6040805160a08101825260008082526020820181905291810182905260608101829052608081019190915290565b803561044481610735565b92915050565b60006020828403121561045b578081fd5b813561039b81610735565b60008060006060848603121561047a578182fd5b833561048581610735565b9250602084013561049581610735565b929592945050506040919091013590565b6000806000606084860312156104ba578283fd5b833567ffffffffffffffff808211156104d1578485fd5b81860187601f8201126104e2578586fd5b80359250818311156104f2578586fd5b6020915061050882601f19601f8601160161070e565b838152888385840101111561051b578687fd5b83838301848301378084018301969096525061053987878301610439565b9350505061054a8560408601610439565b90509250925092565b600060a08284031215610564578081fd5b61056e60a061070e565b825161057981610735565b8152602083015161058981610735565b6020820152604083015161059c81610735565b6040820152606083810151908201526080928301519281019290925250919050565b6000602082840312156105cf578081fd5b5035919050565b73ffffffffffffffffffffffffffffffffffffffff91909116815260200190565b73ffffffffffffffffffffffffffffffffffffffff9485168152928416602084015292166040820152606081019190915260800190565b6000602082528251806020840152815b8181101561065b576020818601810151604086840101520161063e565b8181111561066c5782604083860101525b50601f01601f19169190910160400192915050565b6020808252601c908201527f5448495320434f4d4d414e4445204953204e4f5420464f554e44202100000000604082015260600190565b600060a08201905073ffffffffffffffffffffffffffffffffffffffff80845116835280602085015116602084015280604085015116604084015250606083015160608301526080830151608083015292915050565b60405181810167ffffffffffffffff8111828210171561072d57600080fd5b604052919050565b73ffffffffffffffffffffffffffffffffffffffff8116811461075757600080fd5b5056fe608060405234801561001057600080fd5b5060405161037638038061037683398101604081905261002f916100c1565b6040805160a081018252600160a060020a0395861680825294861660208201819052939095169085018190526060850182905242608090950185905260008054600160a060020a031990811690951790556001805485169093179092556002805490931690911790915560035560045561010e565b8051600160a060020a03811681146100bb57600080fd5b92915050565b600080600080608085870312156100d6578384fd5b6100e086866100a4565b93506100ef86602087016100a4565b92506100fe86604087016100a4565b6060959095015193969295505050565b6102598061011d6000396000f3fe608060405234801561001057600080fd5b506004361061005d577c010000000000000000000000000000000000000000000000000000000060003504631f70c286811461006257806338cc4831146100805780639318162014610095575b600080fd5b61006a6100ae565b60405161007791906101cd565b60405180910390f35b610088610106565b604051610077919061016b565b61009d61010a565b60405161007795949392919061018c565b6100b661013d565b506040805160a08101825260005473ffffffffffffffffffffffffffffffffffffffff90811682526001548116602083015260025416918101919091526003546060820152600454608082015290565b3090565b60005460015460025460035460045473ffffffffffffffffffffffffffffffffffffffff94851694938416939092169185565b6040805160a08101825260008082526020820181905291810182905260608101829052608081019190915290565b73ffffffffffffffffffffffffffffffffffffffff91909116815260200190565b73ffffffffffffffffffffffffffffffffffffffff958616815293851660208501529190931660408301526060820192909252608081019190915260a00190565b600060a08201905073ffffffffffffffffffffffffffffffffffffffff8084511683528060208501511660208401528060408501511660408401525060608301516060830152608083015160808301529291505056fea2646970667358221220e280b0692d40253e77d44e08870a017eb22bd0f30146598cc0ed64bfbd3f863964736f6c63430006010033a2646970667358221220b7fa65f3aff2dd8ddc6aab7762456cc1f9c81718193603611cac5b826ca82ca464736f6c63430006010033",
  "source": "// SPDX-License-Identifier: GPL-3.0\r\npragma experimental ABIEncoderV2;\r\npragma solidity ^0.6.1;\r\n\r\nimport './Commande.sol';\r\nimport './CommandeLib.sol';\r\n\r\ncontract Client{\r\n    \r\n    struct Client_struct {\r\n        address c_address;\r\n        string c_name;\r\n    }\r\n    \r\n    // attributs\r\n    Client_struct private _client;\r\n    address private _owner;\r\n    mapping(address => Commande) public commandes;\r\n    address[] public commande_list;\r\n    //events\r\n    event Request(address indexed client, address indexed supplier, address indexed commande);\r\n    event AcceptTermsheet(address indexed termsheet, address indexed supplier, string signature);\r\n    //modifiers\r\n    modifier hasCommande(address commande_address){\r\n        require(address(commandes[commande_address]) != address(0), \"THIS COMMANDE IS NOT FOUND !\");\r\n        _;\r\n    }\r\n    \r\n    constructor(string memory client_name, address clientAddress) public {\r\n        _client = Client_struct(clientAddress, client_name);\r\n        _owner = msg.sender;\r\n    }\r\n    \r\n    function sendRequestToSupplier(address product_address, address supplier_address, uint unity) public {\r\n        Commande cm = new Commande(msg.sender, supplier_address, product_address, unity);\r\n        commandes[address(cm)] = cm;\r\n        commande_list.push(address(cm));\r\n        emit Request(_client.c_address, supplier_address, address(cm));\r\n    }\r\n    \r\n    function getCommande(address commande_address) hasCommande(commande_address) public view returns(CommandeLib.CM memory) {\r\n        return commandes[commande_address].getCM();\r\n    }\r\n\r\n    function signeTermSheet(string memory signature, address ts_address, address supplier) public {\r\n        emit AcceptTermsheet(ts_address, supplier, signature);\r\n    }\r\n    \r\n}",
  "sourcePath": "/home/tura/order-to-cash/contracts/Client.sol",
  "compiler": {
    "name": "solc",
    "version": "0.6.1+commit.e6f7d5a4.Emscripten.clang"
  },
  "schemaVersion": "3.4.3",
  "updatedAt": "2021-10-08T23:59:02.143Z",
  "networkType": "ethereum",
  "devdoc": {
    "methods": {}
  },
  "userdoc": {
    "methods": {}
  }
}