{
  "contractName": "Commande",
  "abi": [
    {
      "inputs": [
        {
          "internalType": "address",
          "name": "client",
          "type": "address"
        },
        {
          "internalType": "address",
          "name": "supplier",
          "type": "address"
        },
        {
          "internalType": "address",
          "name": "product",
          "type": "address"
        },
        {
          "internalType": "uint256",
          "name": "unity",
          "type": "uint256"
        }
      ],
      "stateMutability": "nonpayable",
      "type": "constructor"
    },
    {
      "inputs": [],
      "name": "cm",
      "outputs": [
        {
          "internalType": "address",
          "name": "client",
          "type": "address"
        },
        {
          "internalType": "address",
          "name": "supplier",
          "type": "address"
        },
        {
          "internalType": "address",
          "name": "product",
          "type": "address"
        },
        {
          "internalType": "uint256",
          "name": "unity",
          "type": "uint256"
        },
        {
          "internalType": "uint256",
          "name": "date_creation",
          "type": "uint256"
        }
      ],
      "stateMutability": "view",
      "type": "function"
    },
    {
      "inputs": [],
      "name": "getAddress",
      "outputs": [
        {
          "internalType": "address",
          "name": "",
          "type": "address"
        }
      ],
      "stateMutability": "view",
      "type": "function"
    },
    {
      "inputs": [],
      "name": "getCM",
      "outputs": [
        {
          "components": [
            {
              "internalType": "address",
              "name": "client",
              "type": "address"
            },
            {
              "internalType": "address",
              "name": "supplier",
              "type": "address"
            },
            {
              "internalType": "address",
              "name": "product",
              "type": "address"
            },
            {
              "internalType": "uint256",
              "name": "unity",
              "type": "uint256"
            },
            {
              "internalType": "uint256",
              "name": "date_creation",
              "type": "uint256"
            }
          ],
          "internalType": "struct CommandeLib.CM",
          "name": "",
          "type": "tuple"
        }
      ],
      "stateMutability": "view",
      "type": "function"
    }
  ],
  "bytecode": "0x608060405234801561001057600080fd5b5060405161037638038061037683398101604081905261002f916100c1565b6040805160a081018252600160a060020a0395861680825294861660208201819052939095169085018190526060850182905242608090950185905260008054600160a060020a031990811690951790556001805485169093179092556002805490931690911790915560035560045561010e565b8051600160a060020a03811681146100bb57600080fd5b92915050565b600080600080608085870312156100d6578384fd5b6100e086866100a4565b93506100ef86602087016100a4565b92506100fe86604087016100a4565b6060959095015193969295505050565b6102598061011d6000396000f3fe608060405234801561001057600080fd5b506004361061005d577c010000000000000000000000000000000000000000000000000000000060003504631f70c286811461006257806338cc4831146100805780639318162014610095575b600080fd5b61006a6100ae565b60405161007791906101cd565b60405180910390f35b610088610106565b604051610077919061016b565b61009d61010a565b60405161007795949392919061018c565b6100b661013d565b506040805160a08101825260005473ffffffffffffffffffffffffffffffffffffffff90811682526001548116602083015260025416918101919091526003546060820152600454608082015290565b3090565b60005460015460025460035460045473ffffffffffffffffffffffffffffffffffffffff94851694938416939092169185565b6040805160a08101825260008082526020820181905291810182905260608101829052608081019190915290565b73ffffffffffffffffffffffffffffffffffffffff91909116815260200190565b73ffffffffffffffffffffffffffffffffffffffff958616815293851660208501529190931660408301526060820192909252608081019190915260a00190565b600060a08201905073ffffffffffffffffffffffffffffffffffffffff8084511683528060208501511660208401528060408501511660408401525060608301516060830152608083015160808301529291505056fea2646970667358221220e280b0692d40253e77d44e08870a017eb22bd0f30146598cc0ed64bfbd3f863964736f6c63430006010033",
  "source": "// SPDX-License-Identifier: GPL-3.0\r\npragma experimental ABIEncoderV2;\r\npragma solidity ^0.6.1;\r\n\r\nimport './CommandeLib.sol';\r\n\r\ncontract Commande {\r\n    \r\n    \r\n    CommandeLib.CM public cm;\r\n    \r\n    constructor(address client, address supplier, address product, uint unity) public {\r\n        cm = CommandeLib.CM(client, supplier, product, unity, block.timestamp);\r\n    }\r\n    \r\n    function getAddress() public view returns(address){\r\n        return address(this);\r\n    }\r\n    \r\n    function getCM() public view returns(CommandeLib.CM memory){\r\n        return cm;\r\n    }\r\n    \r\n}",
  "sourcePath": "/home/tura/order-to-cash/contracts/Commande.sol",
  "compiler": {
    "name": "solc",
    "version": "0.6.1+commit.e6f7d5a4.Emscripten.clang"
  },
  "schemaVersion": "3.4.3",
  "updatedAt": "2021-10-08T12:10:59.970Z",
  "devdoc": {
    "methods": {}
  },
  "userdoc": {
    "methods": {}
  }
}