{
  "contractName": "Delivery",
  "abi": [
    {
      "inputs": [
        {
          "internalType": "address",
          "name": "client",
          "type": "address"
        },
        {
          "internalType": "address",
          "name": "supplier",
          "type": "address"
        },
        {
          "internalType": "address",
          "name": "transporter",
          "type": "address"
        },
        {
          "internalType": "address",
          "name": "termsheet",
          "type": "address"
        },
        {
          "internalType": "string",
          "name": "tracking_number",
          "type": "string"
        },
        {
          "internalType": "uint256",
          "name": "date_creation",
          "type": "uint256"
        },
        {
          "internalType": "uint256",
          "name": "date_start",
          "type": "uint256"
        },
        {
          "internalType": "uint256",
          "name": "date_end",
          "type": "uint256"
        }
      ],
      "stateMutability": "nonpayable",
      "type": "constructor"
    },
    {
      "inputs": [],
      "name": "dl",
      "outputs": [
        {
          "internalType": "address",
          "name": "client",
          "type": "address"
        },
        {
          "internalType": "address",
          "name": "supplier",
          "type": "address"
        },
        {
          "internalType": "address",
          "name": "transporter",
          "type": "address"
        },
        {
          "internalType": "address",
          "name": "termsheet",
          "type": "address"
        },
        {
          "internalType": "string",
          "name": "tracking_number",
          "type": "string"
        },
        {
          "internalType": "uint256",
          "name": "date_creation",
          "type": "uint256"
        },
        {
          "internalType": "uint256",
          "name": "date_start",
          "type": "uint256"
        },
        {
          "internalType": "uint256",
          "name": "date_end",
          "type": "uint256"
        }
      ],
      "stateMutability": "view",
      "type": "function"
    },
    {
      "inputs": [],
      "name": "getAddress",
      "outputs": [
        {
          "internalType": "address",
          "name": "",
          "type": "address"
        }
      ],
      "stateMutability": "view",
      "type": "function"
    },
    {
      "inputs": [],
      "name": "getDelivery",
      "outputs": [
        {
          "components": [
            {
              "internalType": "address",
              "name": "client",
              "type": "address"
            },
            {
              "internalType": "address",
              "name": "supplier",
              "type": "address"
            },
            {
              "internalType": "address",
              "name": "transporter",
              "type": "address"
            },
            {
              "internalType": "address",
              "name": "termsheet",
              "type": "address"
            },
            {
              "internalType": "string",
              "name": "tracking_number",
              "type": "string"
            },
            {
              "internalType": "uint256",
              "name": "date_creation",
              "type": "uint256"
            },
            {
              "internalType": "uint256",
              "name": "date_start",
              "type": "uint256"
            },
            {
              "internalType": "uint256",
              "name": "date_end",
              "type": "uint256"
            }
          ],
          "internalType": "struct DeliveryLib.DL",
          "name": "",
          "type": "tuple"
        }
      ],
      "stateMutability": "view",
      "type": "function"
    }
  ],
  "bytecode": "0x608060405234801561001057600080fd5b506040516107db3803806107db83398101604081905261002f916101b7565b6040805161010081018252600160a060020a03808b168083528a821660208085018290528b8416958501869052928a1660608501819052608085018a905260a0850189905260c0850188905260e0850187905260008054600160a060020a0319908116909417815560018054851690931790925560028054841690961790955560038054909216909417905586519192916100d091600491908901906100ff565b5060a0820151816005015560c0820151816006015560e08201518160070155905050505050505050505061030e565b828054600181600116156101000203166002900490600052602060002090601f016020900481019282601f1061014057805160ff191683800117855561016d565b8280016001018555821561016d579182015b8281111561016d578251825591602001919060010190610152565b5061017992915061017d565b5090565b61019791905b808211156101795760008155600101610183565b90565b8051600160a060020a03811681146101b157600080fd5b92915050565b600080600080600080600080610100898b0312156101d3578384fd5b6101dd8a8a61019a565b97506101ec8a60208b0161019a565b96506101fb8a60408b0161019a565b955061020a8a60608b0161019a565b945060808901516001604060020a03811115610224578485fd5b808a018b601f820112610235578586fd5b8051915061024a610245836102bb565b610295565b8281528c602084840101111561025e578687fd5b61026f8360208301602085016102de565b60a08c015160c08d015160e0909d01519b9e9a9d50989b979a9099909650945050505050565b6040518181016001604060020a03811182821017156102b357600080fd5b604052919050565b60006001604060020a038211156102d0578081fd5b50601f01601f191660200190565b60005b838110156102f95781810151838201526020016102e1565b83811115610308576000848401525b50505050565b6104be8061031d6000396000f3fe608060405234801561001057600080fd5b506004361061005d577c0100000000000000000000000000000000000000000000000000000000600035046324a85aac811461006257806338cc483114610087578063dff675c21461009c575b600080fd5b61006a6100b1565b60405161007e989796959493929190610381565b60405180910390f35b61008f61018b565b60405161007e9190610360565b6100a461018f565b60405161007e91906103ec565b60008054600180546002805460035460048054604080516020601f6000199a851615610100029a909a0190931696909604978801829004820286018201905286855273ffffffffffffffffffffffffffffffffffffffff9788169895881697938416969290931694939290919083018282801561016f5780601f106101445761010080835404028352916020019161016f565b820191906000526020600020905b81548152906001019060200180831161015257829003601f168201915b5050505050908060050154908060060154908060070154905088565b3090565b61019761029a565b6040805161010080820183526000805473ffffffffffffffffffffffffffffffffffffffff9081168452600180548216602080870191909152600280548416878901526003549093166060870152600480548851601f60001995831615909802949094011693909304948501819004810282018101909652838152939491936080860193909283018282801561026e5780601f106102435761010080835404028352916020019161026e565b820191906000526020600020905b81548152906001019060200180831161025157829003601f168201915b505050505081526020016005820154815260200160068201548152602001600782015481525050905090565b60408051610100810182526000808252602082018190529181018290526060808201839052608082015260a0810182905260c0810182905260e081019190915290565b73ffffffffffffffffffffffffffffffffffffffff169052565b60008151808452815b8181101561031c57602081850181015186830182015201610300565b8181111561032d5782602083870101525b50601f017fffffffffffffffffffffffffffffffffffffffffffffffffffffffffffffffe0169290920160200192915050565b73ffffffffffffffffffffffffffffffffffffffff91909116815260200190565b600061010073ffffffffffffffffffffffffffffffffffffffff808c168452808b166020850152808a1660408501528089166060850152508060808401526103cb818401886102f7565b60a0840196909652505060c081019290925260e09091015295945050505050565b60006020825273ffffffffffffffffffffffffffffffffffffffff80845116602084015280602085015116604084015250604083015161042f60608401826102dd565b50606083015161044260808401826102dd565b5060808301516101008060a085015261045f6101208501836102f7565b60a086015160c086015260c086015160e086015260e0860151828601528093505050509291505056fea2646970667358221220d569873ff7fa5fbfc80d1a6fb7a1ebf788b783fcbe92b1ce5806e9183a32c8ca64736f6c63430006010033",
  "source": "pragma solidity ^0.6.1;\npragma experimental ABIEncoderV2;\n\nimport './DeliveryLib.sol';\n\ncontract Delivery {\n\n    DeliveryLib.DL public dl;\n\n    constructor(address client, address supplier, address transporter, address termsheet, string memory tracking_number, uint date_creation, uint date_start, uint date_end) public {\n        dl = DeliveryLib.DL(client, supplier, transporter, termsheet, tracking_number, date_creation, date_start, date_end);\n    }\n\n    function getAddress() public view returns(address){\n        return address(this);\n    }\n\n    function getDelivery() public view returns(DeliveryLib.DL memory) {\n        return dl;\n    }\n}",
  "sourcePath": "/home/tura/order-to-cash/contracts/Delivery.sol",
  "compiler": {
    "name": "solc",
    "version": "0.6.1+commit.e6f7d5a4.Emscripten.clang"
  },
  "schemaVersion": "3.4.3",
  "updatedAt": "2021-10-08T12:10:59.980Z",
  "devdoc": {
    "methods": {}
  },
  "userdoc": {
    "methods": {}
  }
}