{
  "contractName": "ProductContract",
  "abi": [
    {
      "inputs": [
        {
          "internalType": "string",
          "name": "product_name",
          "type": "string"
        },
        {
          "internalType": "string",
          "name": "product_category",
          "type": "string"
        },
        {
          "internalType": "uint256",
          "name": "price",
          "type": "uint256"
        },
        {
          "internalType": "address",
          "name": "owner",
          "type": "address"
        },
        {
          "internalType": "string",
          "name": "carac",
          "type": "string"
        }
      ],
      "stateMutability": "nonpayable",
      "type": "constructor"
    },
    {
      "inputs": [],
      "name": "_product",
      "outputs": [
        {
          "internalType": "string",
          "name": "product_name",
          "type": "string"
        },
        {
          "internalType": "string",
          "name": "product_category",
          "type": "string"
        },
        {
          "internalType": "string",
          "name": "carac",
          "type": "string"
        },
        {
          "internalType": "uint256",
          "name": "price",
          "type": "uint256"
        },
        {
          "internalType": "uint256",
          "name": "date_creation",
          "type": "uint256"
        }
      ],
      "stateMutability": "view",
      "type": "function"
    },
    {
      "inputs": [
        {
          "internalType": "uint256",
          "name": "",
          "type": "uint256"
        }
      ],
      "name": "owners",
      "outputs": [
        {
          "internalType": "address",
          "name": "",
          "type": "address"
        }
      ],
      "stateMutability": "view",
      "type": "function"
    },
    {
      "inputs": [],
      "name": "getAddress",
      "outputs": [
        {
          "internalType": "address",
          "name": "",
          "type": "address"
        }
      ],
      "stateMutability": "view",
      "type": "function"
    },
    {
      "inputs": [],
      "name": "getProduct",
      "outputs": [
        {
          "components": [
            {
              "internalType": "string",
              "name": "product_name",
              "type": "string"
            },
            {
              "internalType": "string",
              "name": "product_category",
              "type": "string"
            },
            {
              "internalType": "string",
              "name": "carac",
              "type": "string"
            },
            {
              "internalType": "uint256",
              "name": "price",
              "type": "uint256"
            },
            {
              "internalType": "uint256",
              "name": "date_creation",
              "type": "uint256"
            }
          ],
          "internalType": "struct Product.Pr",
          "name": "",
          "type": "tuple"
        }
      ],
      "stateMutability": "view",
      "type": "function"
    },
    {
      "inputs": [],
      "name": "getOwners",
      "outputs": [
        {
          "internalType": "address[]",
          "name": "",
          "type": "address[]"
        }
      ],
      "stateMutability": "view",
      "type": "function"
    },
    {
      "inputs": [
        {
          "internalType": "address",
          "name": "new_owner",
          "type": "address"
        }
      ],
      "name": "addOwner",
      "outputs": [],
      "stateMutability": "nonpayable",
      "type": "function"
    }
  ],
  "bytecode": "0x60806040523480156200001157600080fd5b5060405162000b7038038062000b7083398101604081905262000034916200026b565b6040805160a0810182528681526020808201879052918101839052606081018590524260808201528651909160009162000074918391908a01906200011f565b5060208281015180516200008f92600185019201906200011f565b5060408201518051620000ad9160028401916020909101906200011f565b506060820151600382015560809091015160049091015550600580546001810182556000919091527f036b6384b5eca791c62761152d0c79bb0604c104a5fb6f4eb0703f3154bb3db0018054600160a060020a031916600160a060020a03929092169190911790555062000323915050565b828054600181600116156101000203166002900490600052602060002090601f016020900481019282601f106200016257805160ff191683800117855562000192565b8280016001018555821562000192579182015b828111156200019257825182559160200191906001019062000175565b50620001a0929150620001a4565b5090565b620001c191905b80821115620001a05760008155600101620001ab565b90565b600082601f830112620001d5578081fd5b81516001604060020a0380821115620001ec578283fd5b6040516020601f8401601f19168201810183811183821017156200020e578586fd5b806040525081945083825286818588010111156200022b57600080fd5b600092505b838310156200024f578583018101518284018201529182019162000230565b83831115620002615760008185840101525b5050505092915050565b600080600080600060a0868803121562000283578081fd5b85516001604060020a03808211156200029a578283fd5b620002a889838a01620001c4565b96506020880151915080821115620002be578283fd5b620002cc89838a01620001c4565b604089015160608a015191975095509150600160a060020a0382168214620002f2578283fd5b60808801519193508082111562000307578283fd5b506200031688828901620001c4565b9150509295509295909350565b61083d80620003336000396000f3fe608060405234801561001057600080fd5b506004361061008f576000357c0100000000000000000000000000000000000000000000000000000000900480634ba200501161006d5780634ba20050146100de5780637065cb48146100f3578063a0e67e2b146101085761008f565b8063025e7c27146100945780632fb958fa146100bd57806338cc4831146100d6575b600080fd5b6100a76100a2366004610665565b61011d565b6040516100b491906106c8565b60405180910390f35b6100c5610151565b6040516100b4959493929190610742565b6100a761031f565b6100e6610323565b6040516100b4919061078f565b61010661010136600461062a565b610515565b005b61011061058c565b6040516100b491906106e9565b6005818154811061012a57fe5b60009182526020909120015473ffffffffffffffffffffffffffffffffffffffff16905081565b60008054604080516020601f600260001961010060018816150201909516949094049384018190048102820181019092528281529183918301828280156101d95780601f106101ae576101008083540402835291602001916101d9565b820191906000526020600020905b8154815290600101906020018083116101bc57829003601f168201915b505050505090806001018054600181600116156101000203166002900480601f0160208091040260200160405190810160405280929190818152602001828054600181600116156101000203166002900480156102775780601f1061024c57610100808354040283529160200191610277565b820191906000526020600020905b81548152906001019060200180831161025a57829003601f168201915b50505060028085018054604080516020601f60001961010060018716150201909416959095049283018590048502810185019091528181529596959450909250908301828280156103095780601f106102de57610100808354040283529160200191610309565b820191906000526020600020905b8154815290600101906020018083116102ec57829003601f168201915b5050505050908060030154908060040154905085565b3090565b61032b6105fb565b604080516000805460c06020601f60026000196101006001871615020190941693909304928301819004028401810190945260a08301818152929391928492909184918401828280156103bf5780601f10610394576101008083540402835291602001916103bf565b820191906000526020600020905b8154815290600101906020018083116103a257829003601f168201915b50505050508152602001600182018054600181600116156101000203166002900480601f0160208091040260200160405190810160405280929190818152602001828054600181600116156101000203166002900480156104615780601f1061043657610100808354040283529160200191610461565b820191906000526020600020905b81548152906001019060200180831161044457829003601f168201915b5050509183525050600282810180546040805160206001841615610100026000190190931694909404601f810183900483028501830190915280845293810193908301828280156104f35780601f106104c8576101008083540402835291602001916104f3565b820191906000526020600020905b8154815290600101906020018083116104d657829003601f168201915b5050505050815260200160038201548152602001600482015481525050905090565b600580546001810182556000919091527f036b6384b5eca791c62761152d0c79bb0604c104a5fb6f4eb0703f3154bb3db00180547fffffffffffffffffffffffff00000000000000000000000000000000000000001673ffffffffffffffffffffffffffffffffffffffff92909216919091179055565b606060058054806020026020016040519081016040528092919081815260200182805480156105f157602002820191906000526020600020905b815473ffffffffffffffffffffffffffffffffffffffff1681526001909101906020018083116105c6575b5050505050905090565b6040518060a0016040528060608152602001606081526020016060815260200160008152602001600081525090565b60006020828403121561063b578081fd5b813573ffffffffffffffffffffffffffffffffffffffff8116811461065e578182fd5b9392505050565b600060208284031215610676578081fd5b5035919050565b60008151808452815b818110156106a257602081850181015186830182015201610686565b818111156106b35782602083870101525b50601f01601f19169290920160200192915050565b73ffffffffffffffffffffffffffffffffffffffff91909116815260200190565b602080825282518282018190526000918401906040840190835b8181101561073757835173ffffffffffffffffffffffffffffffffffffffff16835260209384019390920191600101610703565b509095945050505050565b600060a0825261075560a083018861067d565b8281036020840152610767818861067d565b8381036040850152610779818861067d565b6060850196909652505050608001529392505050565b600060208252825160a060208401526107ab60c084018261067d565b60208501519150601f19808583030160408601526107c9828461067d565b60408701519350818682030160608701526107e4818561067d565b9250505060608501516080850152608085015160a085015280925050509291505056fea2646970667358221220eff62278c1e943073e8447f6b65e783f2e2e297ee2742ebe2f65554486652c8564736f6c63430006010033",
  "source": "// SPDX-License-Identifier: GPL-3.0\r\npragma solidity ^0.6.1;\r\npragma experimental ABIEncoderV2;\r\nimport './ProductLib.sol';\r\n\r\ncontract ProductContract {\r\n    \r\n    Product.Pr public _product;\r\n    address[] public owners; \r\n    constructor(string memory product_name, string memory product_category, uint256 price, address owner, string memory carac) public{\r\n        _product = Product.Pr(product_name, product_category, carac, price, block.timestamp);\r\n        owners.push(owner);\r\n    }\r\n    \r\n    function getAddress() public view returns(address){\r\n        return address(this);\r\n    }\r\n    \r\n    function getProduct() public view returns(Product.Pr memory) {\r\n        return _product;\r\n    }\r\n\r\n    function getOwners() public view returns(address[] memory){\r\n        return owners;\r\n    }\r\n\r\n    function addOwner(address new_owner) public {\r\n        owners.push(new_owner);\r\n    }\r\n}",
  "sourcePath": "/home/tura/order-to-cash/contracts/Product.sol",
  "compiler": {
    "name": "solc",
    "version": "0.6.1+commit.e6f7d5a4.Emscripten.clang"
  },
  "schemaVersion": "3.4.3",
  "updatedAt": "2021-10-08T12:10:59.992Z",
  "devdoc": {
    "methods": {}
  },
  "userdoc": {
    "methods": {}
  }
}