{
  "contractName": "Supplier",
  "abi": [
    {
      "inputs": [
        {
          "internalType": "string",
          "name": "name",
          "type": "string"
        },
        {
          "internalType": "address",
          "name": "supplier_address",
          "type": "address"
        }
      ],
      "stateMutability": "nonpayable",
      "type": "constructor"
    },
    {
      "anonymous": false,
      "inputs": [
        {
          "indexed": true,
          "internalType": "address",
          "name": "delivery_address",
          "type": "address"
        },
        {
          "indexed": false,
          "internalType": "address",
          "name": "client_address",
          "type": "address"
        },
        {
          "indexed": false,
          "internalType": "address",
          "name": "supplier_address",
          "type": "address"
        },
        {
          "indexed": false,
          "internalType": "address",
          "name": "transporter",
          "type": "address"
        }
      ],
      "name": "Deliver",
      "type": "event"
    },
    {
      "anonymous": false,
      "inputs": [
        {
          "indexed": true,
          "internalType": "address",
          "name": "ts_address",
          "type": "address"
        },
        {
          "indexed": true,
          "internalType": "address",
          "name": "seller",
          "type": "address"
        },
        {
          "indexed": true,
          "internalType": "address",
          "name": "buyer",
          "type": "address"
        }
      ],
      "name": "Termsheet",
      "type": "event"
    },
    {
      "inputs": [
        {
          "internalType": "address",
          "name": "",
          "type": "address"
        }
      ],
      "name": "_products",
      "outputs": [
        {
          "internalType": "contract ProductContract",
          "name": "",
          "type": "address"
        }
      ],
      "stateMutability": "view",
      "type": "function",
      "constant": true
    },
    {
      "inputs": [
        {
          "internalType": "address",
          "name": "",
          "type": "address"
        }
      ],
      "name": "_transporters",
      "outputs": [
        {
          "internalType": "contract Transporter",
          "name": "",
          "type": "address"
        }
      ],
      "stateMutability": "view",
      "type": "function",
      "constant": true
    },
    {
      "inputs": [
        {
          "internalType": "address",
          "name": "",
          "type": "address"
        }
      ],
      "name": "deliveries",
      "outputs": [
        {
          "internalType": "contract Delivery",
          "name": "",
          "type": "address"
        }
      ],
      "stateMutability": "view",
      "type": "function",
      "constant": true
    },
    {
      "inputs": [
        {
          "internalType": "string",
          "name": "product_name",
          "type": "string"
        },
        {
          "internalType": "string",
          "name": "product_category",
          "type": "string"
        },
        {
          "internalType": "uint256",
          "name": "price",
          "type": "uint256"
        },
        {
          "internalType": "string",
          "name": "carac",
          "type": "string"
        }
      ],
      "name": "createProduct",
      "outputs": [
        {
          "internalType": "address",
          "name": "",
          "type": "address"
        }
      ],
      "stateMutability": "nonpayable",
      "type": "function"
    },
    {
      "inputs": [
        {
          "internalType": "address",
          "name": "supplier",
          "type": "address"
        },
        {
          "internalType": "address",
          "name": "product",
          "type": "address"
        },
        {
          "internalType": "uint256",
          "name": "unity",
          "type": "uint256"
        }
      ],
      "name": "sendProposal",
      "outputs": [
        {
          "internalType": "uint256",
          "name": "",
          "type": "uint256"
        }
      ],
      "stateMutability": "view",
      "type": "function",
      "constant": true
    },
    {
      "inputs": [
        {
          "internalType": "string",
          "name": "issue",
          "type": "string"
        },
        {
          "internalType": "address",
          "name": "sender",
          "type": "address"
        },
        {
          "internalType": "address",
          "name": "receiver",
          "type": "address"
        },
        {
          "internalType": "address[]",
          "name": "products",
          "type": "address[]"
        },
        {
          "internalType": "uint256",
          "name": "tax",
          "type": "uint256"
        },
        {
          "internalType": "string",
          "name": "incoterm",
          "type": "string"
        },
        {
          "internalType": "uint256",
          "name": "totalPrice",
          "type": "uint256"
        },
        {
          "internalType": "uint256",
          "name": "commission",
          "type": "uint256"
        },
        {
          "internalType": "uint256",
          "name": "date_creation",
          "type": "uint256"
        },
        {
          "internalType": "uint256",
          "name": "closing_date",
          "type": "uint256"
        },
        {
          "internalType": "uint256",
          "name": "compensation",
          "type": "uint256"
        }
      ],
      "name": "createTermSheet",
      "outputs": [
        {
          "internalType": "address",
          "name": "",
          "type": "address"
        }
      ],
      "stateMutability": "nonpayable",
      "type": "function"
    },
    {
      "inputs": [
        {
          "internalType": "address",
          "name": "pr_address",
          "type": "address"
        }
      ],
      "name": "getProductByAddress",
      "outputs": [
        {
          "components": [
            {
              "internalType": "string",
              "name": "product_name",
              "type": "string"
            },
            {
              "internalType": "string",
              "name": "product_category",
              "type": "string"
            },
            {
              "internalType": "string",
              "name": "carac",
              "type": "string"
            },
            {
              "internalType": "uint256",
              "name": "price",
              "type": "uint256"
            },
            {
              "internalType": "uint256",
              "name": "date_creation",
              "type": "uint256"
            }
          ],
          "internalType": "struct Product.Pr",
          "name": "",
          "type": "tuple"
        }
      ],
      "stateMutability": "view",
      "type": "function",
      "constant": true
    },
    {
      "inputs": [],
      "name": "getAllProduct",
      "outputs": [
        {
          "internalType": "address[]",
          "name": "",
          "type": "address[]"
        }
      ],
      "stateMutability": "view",
      "type": "function",
      "constant": true
    },
    {
      "inputs": [
        {
          "internalType": "address",
          "name": "pr_address",
          "type": "address"
        }
      ],
      "name": "getOwnersOfProduct",
      "outputs": [
        {
          "internalType": "address[]",
          "name": "",
          "type": "address[]"
        }
      ],
      "stateMutability": "view",
      "type": "function",
      "constant": true
    },
    {
      "inputs": [
        {
          "internalType": "address",
          "name": "pr_address",
          "type": "address"
        },
        {
          "internalType": "address",
          "name": "new_owner",
          "type": "address"
        }
      ],
      "name": "addOwnerToProduct",
      "outputs": [],
      "stateMutability": "nonpayable",
      "type": "function"
    },
    {
      "inputs": [
        {
          "internalType": "string",
          "name": "company_name",
          "type": "string"
        },
        {
          "internalType": "string",
          "name": "type_transport",
          "type": "string"
        }
      ],
      "name": "createTransporter",
      "outputs": [
        {
          "internalType": "address",
          "name": "",
          "type": "address"
        }
      ],
      "stateMutability": "nonpayable",
      "type": "function"
    },
    {
      "inputs": [
        {
          "internalType": "address",
          "name": "transporter_address",
          "type": "address"
        }
      ],
      "name": "getTransporterByAddress",
      "outputs": [
        {
          "components": [
            {
              "internalType": "string",
              "name": "company_name",
              "type": "string"
            },
            {
              "internalType": "string",
              "name": "type_transport",
              "type": "string"
            }
          ],
          "internalType": "struct TransporterLib.TR",
          "name": "",
          "type": "tuple"
        }
      ],
      "stateMutability": "view",
      "type": "function",
      "constant": true
    },
    {
      "inputs": [],
      "name": "getAllTransporter",
      "outputs": [
        {
          "internalType": "address[]",
          "name": "",
          "type": "address[]"
        }
      ],
      "stateMutability": "view",
      "type": "function",
      "constant": true
    },
    {
      "inputs": [
        {
          "internalType": "address",
          "name": "client",
          "type": "address"
        },
        {
          "internalType": "address",
          "name": "supplier",
          "type": "address"
        },
        {
          "internalType": "address",
          "name": "transporter",
          "type": "address"
        },
        {
          "internalType": "address",
          "name": "termsheet",
          "type": "address"
        },
        {
          "internalType": "string",
          "name": "tracking_number",
          "type": "string"
        },
        {
          "internalType": "uint256",
          "name": "date_creation",
          "type": "uint256"
        },
        {
          "internalType": "uint256",
          "name": "date_start",
          "type": "uint256"
        },
        {
          "internalType": "uint256",
          "name": "date_end",
          "type": "uint256"
        }
      ],
      "name": "createDelivery",
      "outputs": [
        {
          "internalType": "address",
          "name": "",
          "type": "address"
        }
      ],
      "stateMutability": "nonpayable",
      "type": "function"
    },
    {
      "inputs": [],
      "name": "getAllDeliveries",
      "outputs": [
        {
          "internalType": "address[]",
          "name": "",
          "type": "address[]"
        }
      ],
      "stateMutability": "view",
      "type": "function",
      "constant": true
    },
    {
      "inputs": [
        {
          "internalType": "address",
          "name": "dl_address",
          "type": "address"
        }
      ],
      "name": "getDeliveryByAddress",
      "outputs": [
        {
          "components": [
            {
              "internalType": "address",
              "name": "client",
              "type": "address"
            },
            {
              "internalType": "address",
              "name": "supplier",
              "type": "address"
            },
            {
              "internalType": "address",
              "name": "transporter",
              "type": "address"
            },
            {
              "internalType": "address",
              "name": "termsheet",
              "type": "address"
            },
            {
              "internalType": "string",
              "name": "tracking_number",
              "type": "string"
            },
            {
              "internalType": "uint256",
              "name": "date_creation",
              "type": "uint256"
            },
            {
              "internalType": "uint256",
              "name": "date_start",
              "type": "uint256"
            },
            {
              "internalType": "uint256",
              "name": "date_end",
              "type": "uint256"
            }
          ],
          "internalType": "struct DeliveryLib.DL",
          "name": "",
          "type": "tuple"
        }
      ],
      "stateMutability": "view",
      "type": "function",
      "constant": true
    }
  ],
  "bytecode": "0x60806040523480156200001157600080fd5b506040516200459638038062004596833981016040819052620000349162000158565b604051806060016040528083815260200142815260200182600160a060020a031681525060008082015181600001908051906020019062000077929190620000b3565b506020820151600182015560409091015160029091018054600160a060020a031916600160a060020a0390921691909117905550620002609050565b828054600181600116156101000203166002900490600052602060002090601f016020900481019282601f10620000f657805160ff191683800117855562000126565b8280016001018555821562000126579182015b828111156200012657825182559160200191906001019062000109565b506200013492915062000138565b5090565b6200015591905b808211156200013457600081556001016200013f565b90565b600080604083850312156200016b578182fd5b825167ffffffffffffffff8082111562000183578384fd5b81850186601f82011262000195578485fd5b8051925081831115620001a6578485fd5b604051601f8401601f191681016020018381118282101715620001c7578687fd5b604052838152818401602001881015620001df578586fd5b620001f284602083016020850162000214565b809550505050506020830151620002098162000247565b809150509250929050565b60005b838110156200023157818101518382015260200162000217565b8381111562000241576000848401525b50505050565b600160a060020a03811681146200025d57600080fd5b50565b61432680620002706000396000f3fe60806040523480156200001157600080fd5b506004361062000135576000357c01000000000000000000000000000000000000000000000000000000009004806376a08ba111620000c2578063cbf122b7116200008c578063cbf122b71462000299578063d055a75f14620002b0578063dfa9b48214620002ba578063e2874f2b14620002d15762000135565b806376a08ba114620002485780638f00c315146200025f578063945f472c1462000278578063a457ffb814620002825762000135565b80632a7690b611620001045780632a7690b614620001bf578063481eee1814620001e55780635f0d382a14620001fc57806374185c4914620002225762000135565b806312c89196146200013a578063132e6aac14620001695780631cee1ccf1462000180578063258ceb5f14620001a6575b600080fd5b620001516200014b366004620018d9565b620002e8565b60405162000160919062001c60565b60405180910390f35b620001516200017a36600462001871565b620003c0565b62000197620001913660046200156a565b620006a1565b60405162000160919062001edf565b620001bd620001b7366004620015a8565b62000785565b005b620001d6620001d03660046200156a565b62000896565b60405162000160919062001fff565b62000151620001f63660046200156a565b62000990565b620002136200020d3660046200156a565b620009b8565b60405162000160919062001f81565b620002396200023336600462001692565b62000ae4565b6040516200016091906200203c565b62000151620002593660046200156a565b62000c8a565b6200026962000cb2565b60405162000160919062001d1e565b6200026962000d49565b62000151620002933660046200177e565b62000db8565b62000151620002aa366004620015e5565b62000fc7565b62000269620011b0565b62000151620002cb3660046200156a565b6200121f565b62000269620002e23660046200156a565b62001247565b6000808585853386604051620002fe9062001364565b6200030e95949392919062001e05565b604051809103906000f0801580156200032b573d6000803e3d6000fd5b5073ffffffffffffffffffffffffffffffffffffffff8116600081815260046020526040812080547fffffffffffffffffffffffff000000000000000000000000000000000000000090811684179091556003805460018101825592527fc2575a0e9e593c00f959f8c92f12db2869c3395a3b0502d05e2516446f71f85b909101805490911690911790559695505050505050565b6000808383604051620003d39062001372565b620003e092919062001dd3565b604051809103906000f080158015620003fd573d6000803e3d6000fd5b50905080600660008373ffffffffffffffffffffffffffffffffffffffff166338cc48316040518163ffffffff167c010000000000000000000000000000000000000000000000000000000002815260040160206040518083038186803b1580156200046857600080fd5b505afa1580156200047d573d6000803e3d6000fd5b505050506040513d601f19601f82011682018060405250620004a3919081019062001589565b73ffffffffffffffffffffffffffffffffffffffff1673ffffffffffffffffffffffffffffffffffffffff16815260200190815260200160002060006101000a81548173ffffffffffffffffffffffffffffffffffffffff021916908373ffffffffffffffffffffffffffffffffffffffff16021790555060058173ffffffffffffffffffffffffffffffffffffffff166338cc48316040518163ffffffff167c010000000000000000000000000000000000000000000000000000000002815260040160206040518083038186803b1580156200058057600080fd5b505afa15801562000595573d6000803e3d6000fd5b505050506040513d601f19601f82011682018060405250620005bb919081019062001589565b815460018101835560009283526020928390200180547fffffffffffffffffffffffff00000000000000000000000000000000000000001673ffffffffffffffffffffffffffffffffffffffff928316179055604080517f38cc48310000000000000000000000000000000000000000000000000000000081529051918416926338cc483192600480840193829003018186803b1580156200065c57600080fd5b505afa15801562000671573d6000803e3d6000fd5b505050506040513d601f19601f8201168201806040525062000697919081019062001589565b9150505b92915050565b620006ab62001380565b60025473ffffffffffffffffffffffffffffffffffffffff163314620006d057600080fd5b73ffffffffffffffffffffffffffffffffffffffff8083166000908152600860205260408082205481517fdff675c2000000000000000000000000000000000000000000000000000000008152915193169263dff675c292600480840193919291829003018186803b1580156200074657600080fd5b505afa1580156200075b573d6000803e3d6000fd5b505050506040513d6000823e601f3d908101601f191682016040526200069b919081019062001971565b73ffffffffffffffffffffffffffffffffffffffff808316600090815260046020526040902054839116620007f1576040517f08c379a0000000000000000000000000000000000000000000000000000000008152600401620007e89062001ea8565b60405180910390fd5b73ffffffffffffffffffffffffffffffffffffffff8084166000908152600460208190526040918290205491517f7065cb4800000000000000000000000000000000000000000000000000000000815291909216918291637065cb48916200085c9187910162001c60565b600060405180830381600087803b1580156200087757600080fd5b505af11580156200088c573d6000803e3d6000fd5b5050505050505050565b620008a0620013c3565b73ffffffffffffffffffffffffffffffffffffffff808316600090815260066020526040902054839116620008d457600080fd5b73ffffffffffffffffffffffffffffffffffffffff8084166000908152600660205260408082205481517f1a1ad4c50000000000000000000000000000000000000000000000000000000081529151931692631a1ad4c592600480840193919291829003018186803b1580156200094a57600080fd5b505afa1580156200095f573d6000803e3d6000fd5b505050506040513d6000823e601f3d908101601f1916820160405262000989919081019062001b2a565b9392505050565b60066020526000908152604090205473ffffffffffffffffffffffffffffffffffffffff1681565b620009c2620013dd565b73ffffffffffffffffffffffffffffffffffffffff80831660009081526004602052604090205483911662000a25576040517f08c379a0000000000000000000000000000000000000000000000000000000008152600401620007e89062001ea8565b73ffffffffffffffffffffffffffffffffffffffff80841660009081526004602081905260408083205481517f4ba2005000000000000000000000000000000000000000000000000000000000815291519416938493634ba200509383810193919291829003018186803b15801562000a9d57600080fd5b505afa15801562000ab2573d6000803e3d6000fd5b505050506040513d6000823e601f3d908101601f1916820160405262000adc919081019062001a57565b949350505050565b600254600090849073ffffffffffffffffffffffffffffffffffffffff80831691161462000b40576040517f08c379a0000000000000000000000000000000000000000000000000000000008152600401620007e89062001e71565b73ffffffffffffffffffffffffffffffffffffffff80851660009081526004602052604090205485911662000ba3576040517f08c379a0000000000000000000000000000000000000000000000000000000008152600401620007e89062001ea8565b73ffffffffffffffffffffffffffffffffffffffff8086166000908152600460205260409020541662000bd5620013dd565b8173ffffffffffffffffffffffffffffffffffffffff16634ba200506040518163ffffffff167c010000000000000000000000000000000000000000000000000000000002815260040160006040518083038186803b15801562000c3857600080fd5b505afa15801562000c4d573d6000803e3d6000fd5b505050506040513d6000823e601f3d908101601f1916820160405262000c77919081019062001a57565b6060015186029450505050509392505050565b60086020526000908152604090205473ffffffffffffffffffffffffffffffffffffffff1681565b60025460609073ffffffffffffffffffffffffffffffffffffffff16331462000cda57600080fd5b600780548060200260200160405190810160405280929190818152602001828054801562000d3f57602002820191906000526020600020905b815473ffffffffffffffffffffffffffffffffffffffff16815260019091019060200180831162000d13575b5050505050905090565b6060600580548060200260200160405190810160405280929190818152602001828054801562000d3f5760200282019190600052602060002090815473ffffffffffffffffffffffffffffffffffffffff16815260019091019060200180831162000d13575050505050905090565b6000808c8c8c8c8c8c8c8c8c8c8c60405162000dd4906200140c565b62000dea9b9a9998979695949392919062001d33565b604051809103906000f08015801562000e07573d6000803e3d6000fd5b5090508a73ffffffffffffffffffffffffffffffffffffffff168c73ffffffffffffffffffffffffffffffffffffffff168273ffffffffffffffffffffffffffffffffffffffff166338cc48316040518163ffffffff167c010000000000000000000000000000000000000000000000000000000002815260040160206040518083038186803b15801562000e9b57600080fd5b505afa15801562000eb0573d6000803e3d6000fd5b505050506040513d601f19601f8201168201806040525062000ed6919081019062001589565b73ffffffffffffffffffffffffffffffffffffffff167f212408cc5813a3f7a711515499565b55ca75caae95586d45b51c6e7417e4af0860405160405180910390a48073ffffffffffffffffffffffffffffffffffffffff166338cc48316040518163ffffffff167c010000000000000000000000000000000000000000000000000000000002815260040160206040518083038186803b15801562000f7b57600080fd5b505afa15801562000f90573d6000803e3d6000fd5b505050506040513d601f19601f8201168201806040525062000fb6919081019062001589565b50509b9a5050505050505050505050565b600080898989898989898960405162000fe0906200141a565b62000ff398979695949392919062001cb1565b604051809103906000f08015801562001010573d6000803e3d6000fd5b5090508073ffffffffffffffffffffffffffffffffffffffff166338cc48316040518163ffffffff167c010000000000000000000000000000000000000000000000000000000002815260040160206040518083038186803b1580156200107657600080fd5b505afa1580156200108b573d6000803e3d6000fd5b505050506040513d601f19601f82011682018060405250620010b1919081019062001589565b73ffffffffffffffffffffffffffffffffffffffff167f27c8f2d63adedf3a7c16f921c4dad86f910addeabae2393dc3161b80671cc47c8b8b8b604051620010fc9392919062001c81565b60405180910390a28073ffffffffffffffffffffffffffffffffffffffff166338cc48316040518163ffffffff167c010000000000000000000000000000000000000000000000000000000002815260040160206040518083038186803b1580156200116757600080fd5b505afa1580156200117c573d6000803e3d6000fd5b505050506040513d601f19601f82011682018060405250620011a2919081019062001589565b9a9950505050505050505050565b6060600380548060200260200160405190810160405280929190818152602001828054801562000d3f5760200282019190600052602060002090815473ffffffffffffffffffffffffffffffffffffffff16815260019091019060200180831162000d13575050505050905090565b60046020526000908152604090205473ffffffffffffffffffffffffffffffffffffffff1681565b73ffffffffffffffffffffffffffffffffffffffff808216600090815260046020526040902054606091839116620012ad576040517f08c379a0000000000000000000000000000000000000000000000000000000008152600401620007e89062001ea8565b73ffffffffffffffffffffffffffffffffffffffff80841660009081526004602081905260408083205481517fa0e67e2b0000000000000000000000000000000000000000000000000000000081529151941693849363a0e67e2b9383810193919291829003018186803b1580156200132557600080fd5b505afa1580156200133a573d6000803e3d6000fd5b505050506040513d6000823e601f3d908101601f1916820160405262000adc9190810190620016d7565b610b70806200210d83390190565b6106718062002c7d83390190565b60408051610100810182526000808252602082018190529181018290526060808201839052608082015260a0810182905260c0810182905260e081019190915290565b604051806040016040528060608152602001606081525090565b6040518060a0016040528060608152602001606081526020016060815260200160008152602001600081525090565b61082880620032ee83390190565b6107db8062003b1683390190565b80356200069b81620020e6565b80516200069b81620020e6565b600082601f83011262001453578081fd5b81356200146a62001464826200206d565b62002045565b8181529150602080830190848101818402860182018710156200148c57600080fd5b60005b84811015620014b8578135620014a581620020e6565b845292820192908201906001016200148f565b505050505092915050565b600082601f830112620014d4578081fd5b8151620014e562001464826200208e565b9150808252836020828501011115620014fd57600080fd5b62001510816020840160208601620020b3565b5092915050565b600082601f83011262001528578081fd5b81356200153962001464826200208e565b91508082528360208285010111156200155157600080fd5b8060208401602084013760009082016020015292915050565b6000602082840312156200157c578081fd5b81356200098981620020e6565b6000602082840312156200159b578081fd5b81516200098981620020e6565b60008060408385031215620015bb578081fd5b8235620015c881620020e6565b91506020830135620015da81620020e6565b809150509250929050565b600080600080600080600080610100898b03121562001602578384fd5b88356200160f81620020e6565b975060208901356200162181620020e6565b965060408901356200163381620020e6565b955060608901356200164581620020e6565b9450608089013567ffffffffffffffff81111562001661578485fd5b6200166f8b828c0162001517565b989b979a50959894979660a0860135965060c08601359560e00135945092505050565b600080600060608486031215620016a7578283fd5b8335620016b481620020e6565b92506020840135620016c681620020e6565b929592945050506040919091013590565b60006020808385031215620016ea578182fd5b825167ffffffffffffffff81111562001701578283fd5b80840185601f82011262001713578384fd5b805191506200172662001464836200206d565b828152838101908285018585028401860189101562001743578687fd5b8693505b84841015620017725780516200175d81620020e6565b83526001939093019291850191850162001747565b50979650505050505050565b60008060008060008060008060008060006101608c8e031215620017a0578283fd5b67ffffffffffffffff808d351115620017b7578384fd5b620017c68e8e358f0162001517565b9b50620017d78e60208f0162001428565b9a50620017e88e60408f0162001428565b99508060608e01351115620017fb578384fd5b6200180d8e60608f01358f0162001442565b985060808d013597508060a08e0135111562001827578384fd5b506200183a8d60a08e01358e0162001517565b9a9d999c50979a9699959895975050505060c08401359360e081013593610100820135935061012082013592506101409091013590565b6000806040838503121562001884578182fd5b823567ffffffffffffffff808211156200189c578384fd5b620018aa8683870162001517565b93506020850135915080821115620018c0578283fd5b50620018cf8582860162001517565b9150509250929050565b60008060008060808587031215620018ef578182fd5b843567ffffffffffffffff8082111562001907578384fd5b620019158883890162001517565b955060208701359150808211156200192b578384fd5b620019398883890162001517565b945060408701359350606087013591508082111562001956578283fd5b50620019658782880162001517565b91505092959194509250565b60006020828403121562001983578081fd5b815167ffffffffffffffff808211156200199b578283fd5b610100918401808603831315620019b0578384fd5b620019bb8362002045565b620019c7878362001435565b8152620019d8876020840162001435565b6020820152620019ec876040840162001435565b604082015262001a00876060840162001435565b6060820152608082015193508284111562001a19578485fd5b62001a2787858401620014c3565b608082015260a082015160a082015260c082015160c082015260e082015160e08201528094505050505092915050565b60006020828403121562001a69578081fd5b815167ffffffffffffffff8082111562001a81578283fd5b81840160a0818703121562001a94578384fd5b62001aa060a062002045565b925080518281111562001ab1578485fd5b62001abf87828401620014c3565b84525060208101518281111562001ad4578485fd5b62001ae287828401620014c3565b60208501525060408101518281111562001afa578485fd5b62001b0887828401620014c3565b6040850152506060818101519084015260809081015190830152509392505050565b60006020828403121562001b3c578081fd5b815167ffffffffffffffff8082111562001b54578283fd5b8184016040818703121562001b67578384fd5b62001b73604062002045565b925080518281111562001b84578485fd5b62001b9287828401620014c3565b84525060208101518281111562001ba7578485fd5b62001bb587828401620014c3565b6020850152509195945050505050565b73ffffffffffffffffffffffffffffffffffffffff169052565b6000815180845260208401935060208301825b8281101562001c2857815173ffffffffffffffffffffffffffffffffffffffff1686526020958601959091019060010162001bf2565b5093949350505050565b6000815180845262001c4c816020860160208601620020b3565b601f01601f19169290920160200192915050565b73ffffffffffffffffffffffffffffffffffffffff91909116815260200190565b73ffffffffffffffffffffffffffffffffffffffff93841681529183166020830152909116604082015260600190565b600061010073ffffffffffffffffffffffffffffffffffffffff808c168452808b166020850152808a16604085015280891660608501525080608084015262001cfd8184018862001c32565b60a0840196909652505060c081019290925260e09091015295945050505050565b60006020825262000989602083018462001bdf565b600061016080835262001d498184018f62001c32565b73ffffffffffffffffffffffffffffffffffffffff9150818e166020850152818d166040850152838103606085015262001d84818d62001bdf565b91505089608084015282810360a084015262001da1818a62001c32565b60c0840198909852505060e0810194909452610100840192909252610120830152610140909101529695505050505050565b60006040825262001de8604083018562001c32565b828103602084015262001dfc818562001c32565b95945050505050565b600060a0825262001e1a60a083018862001c32565b828103602084015262001e2e818862001c32565b86604085015273ffffffffffffffffffffffffffffffffffffffff86166060850152838103608085015262001e64818662001c32565b9998505050505050505050565b6020808252601d908201527f434f554c44204e4f542053454e4420414e592050524f504f53414c2021000000604082015260600190565b6020808252601b908201527f544849532050524f44554354204953204e4f5420464f554e4420210000000000604082015260600190565b60006020825273ffffffffffffffffffffffffffffffffffffffff80845116602084015280602085015116604084015250604083015162001f24606084018262001bc5565b50606083015162001f39608084018262001bc5565b5060808301516101008060a085015262001f5861012085018362001c32565b60a086015160c086015260c086015160e086015260e08601518286015280935050505092915050565b600060208252825160a0602084015262001f9f60c084018262001c32565b60208501519150601f198085830301604086015262001fbf828462001c32565b604087015193508186820301606087015262001fdc818562001c32565b9250505060608501516080850152608085015160a0850152809250505092915050565b6000602082528251604060208401526200201d606084018262001c32565b60208501519150601f1984820301604085015262001dfc818362001c32565b90815260200190565b60405181810167ffffffffffffffff811182821017156200206557600080fd5b604052919050565b600067ffffffffffffffff82111562002084578081fd5b5060209081020190565b600067ffffffffffffffff821115620020a5578081fd5b50601f01601f191660200190565b60005b83811015620020d0578181015183820152602001620020b6565b83811115620020e0576000848401525b50505050565b73ffffffffffffffffffffffffffffffffffffffff811681146200210957600080fd5b5056fe60806040523480156200001157600080fd5b5060405162000b7038038062000b7083398101604081905262000034916200026b565b6040805160a0810182528681526020808201879052918101839052606081018590524260808201528651909160009162000074918391908a01906200011f565b5060208281015180516200008f92600185019201906200011f565b5060408201518051620000ad9160028401916020909101906200011f565b506060820151600382015560809091015160049091015550600580546001810182556000919091527f036b6384b5eca791c62761152d0c79bb0604c104a5fb6f4eb0703f3154bb3db0018054600160a060020a031916600160a060020a03929092169190911790555062000323915050565b828054600181600116156101000203166002900490600052602060002090601f016020900481019282601f106200016257805160ff191683800117855562000192565b8280016001018555821562000192579182015b828111156200019257825182559160200191906001019062000175565b50620001a0929150620001a4565b5090565b620001c191905b80821115620001a05760008155600101620001ab565b90565b600082601f830112620001d5578081fd5b81516001604060020a0380821115620001ec578283fd5b6040516020601f8401601f19168201810183811183821017156200020e578586fd5b806040525081945083825286818588010111156200022b57600080fd5b600092505b838310156200024f578583018101518284018201529182019162000230565b83831115620002615760008185840101525b5050505092915050565b600080600080600060a0868803121562000283578081fd5b85516001604060020a03808211156200029a578283fd5b620002a889838a01620001c4565b96506020880151915080821115620002be578283fd5b620002cc89838a01620001c4565b604089015160608a015191975095509150600160a060020a0382168214620002f2578283fd5b60808801519193508082111562000307578283fd5b506200031688828901620001c4565b9150509295509295909350565b61083d80620003336000396000f3fe608060405234801561001057600080fd5b506004361061008f576000357c0100000000000000000000000000000000000000000000000000000000900480634ba200501161006d5780634ba20050146100de5780637065cb48146100f3578063a0e67e2b146101085761008f565b8063025e7c27146100945780632fb958fa146100bd57806338cc4831146100d6575b600080fd5b6100a76100a2366004610665565b61011d565b6040516100b491906106c8565b60405180910390f35b6100c5610151565b6040516100b4959493929190610742565b6100a761031f565b6100e6610323565b6040516100b4919061078f565b61010661010136600461062a565b610515565b005b61011061058c565b6040516100b491906106e9565b6005818154811061012a57fe5b60009182526020909120015473ffffffffffffffffffffffffffffffffffffffff16905081565b60008054604080516020601f600260001961010060018816150201909516949094049384018190048102820181019092528281529183918301828280156101d95780601f106101ae576101008083540402835291602001916101d9565b820191906000526020600020905b8154815290600101906020018083116101bc57829003601f168201915b505050505090806001018054600181600116156101000203166002900480601f0160208091040260200160405190810160405280929190818152602001828054600181600116156101000203166002900480156102775780601f1061024c57610100808354040283529160200191610277565b820191906000526020600020905b81548152906001019060200180831161025a57829003601f168201915b50505060028085018054604080516020601f60001961010060018716150201909416959095049283018590048502810185019091528181529596959450909250908301828280156103095780601f106102de57610100808354040283529160200191610309565b820191906000526020600020905b8154815290600101906020018083116102ec57829003601f168201915b5050505050908060030154908060040154905085565b3090565b61032b6105fb565b604080516000805460c06020601f60026000196101006001871615020190941693909304928301819004028401810190945260a08301818152929391928492909184918401828280156103bf5780601f10610394576101008083540402835291602001916103bf565b820191906000526020600020905b8154815290600101906020018083116103a257829003601f168201915b50505050508152602001600182018054600181600116156101000203166002900480601f0160208091040260200160405190810160405280929190818152602001828054600181600116156101000203166002900480156104615780601f1061043657610100808354040283529160200191610461565b820191906000526020600020905b81548152906001019060200180831161044457829003601f168201915b5050509183525050600282810180546040805160206001841615610100026000190190931694909404601f810183900483028501830190915280845293810193908301828280156104f35780601f106104c8576101008083540402835291602001916104f3565b820191906000526020600020905b8154815290600101906020018083116104d657829003601f168201915b5050505050815260200160038201548152602001600482015481525050905090565b600580546001810182556000919091527f036b6384b5eca791c62761152d0c79bb0604c104a5fb6f4eb0703f3154bb3db00180547fffffffffffffffffffffffff00000000000000000000000000000000000000001673ffffffffffffffffffffffffffffffffffffffff92909216919091179055565b606060058054806020026020016040519081016040528092919081815260200182805480156105f157602002820191906000526020600020905b815473ffffffffffffffffffffffffffffffffffffffff1681526001909101906020018083116105c6575b5050505050905090565b6040518060a0016040528060608152602001606081526020016060815260200160008152602001600081525090565b60006020828403121561063b578081fd5b813573ffffffffffffffffffffffffffffffffffffffff8116811461065e578182fd5b9392505050565b600060208284031215610676578081fd5b5035919050565b60008151808452815b818110156106a257602081850181015186830182015201610686565b818111156106b35782602083870101525b50601f01601f19169290920160200192915050565b73ffffffffffffffffffffffffffffffffffffffff91909116815260200190565b602080825282518282018190526000918401906040840190835b8181101561073757835173ffffffffffffffffffffffffffffffffffffffff16835260209384019390920191600101610703565b509095945050505050565b600060a0825261075560a083018861067d565b8281036020840152610767818861067d565b8381036040850152610779818861067d565b6060850196909652505050608001529392505050565b600060208252825160a060208401526107ab60c084018261067d565b60208501519150601f19808583030160408601526107c9828461067d565b60408701519350818682030160608701526107e4818561067d565b9250505060608501516080850152608085015160a085015280925050509291505056fea2646970667358221220eff62278c1e943073e8447f6b65e783f2e2e297ee2742ebe2f65554486652c8564736f6c63430006010033608060405234801561001057600080fd5b5060405161067138038061067183398101604081905261002f916101b6565b604080518082019091528281526020808201839052835160009161005791839187019061007b565b506020828101518051610070926001850192019061007b565b509050505050610216565b828054600181600116156101000203166002900490600052602060002090601f016020900481019282601f106100bc57805160ff19168380011785556100e9565b828001600101855582156100e9579182015b828111156100e95782518255916020019190600101906100ce565b506100f59291506100f9565b5090565b61011391905b808211156100f557600081556001016100ff565b90565b600082601f830112610126578081fd5b81516001604060020a038082111561013c578283fd5b6040516020601f8401601f191682018101838111838210171561015d578586fd5b8060405250819450838252868185880101111561017957600080fd5b600092505b8383101561019b578583018101518284018201529182019161017e565b838311156101ac5760008185840101525b5050505092915050565b600080604083850312156101c8578182fd5b82516001604060020a03808211156101de578384fd5b6101ea86838701610116565b935060208501519150808211156101ff578283fd5b5061020c85828601610116565b9150509250929050565b61044c806102256000396000f3fe608060405234801561001057600080fd5b506004361061005d577c010000000000000000000000000000000000000000000000000000000060003504631a1ad4c5811461006257806338cc483114610080578063c5917cbd14610095575b600080fd5b61006a6100ab565b60405161007791906103dd565b60405180910390f35b6100886101f5565b604051610077919061038e565b61009d6101f9565b6040516100779291906103af565b6100b3610329565b604080516000805460606020601f6002600019610100600187161502019094169390930492830181900402840181018552938301818152929391928492909184918401828280156101455780601f1061011a57610100808354040283529160200191610145565b820191906000526020600020905b81548152906001019060200180831161012857829003601f168201915b50505050508152602001600182018054600181600116156101000203166002900480601f0160208091040260200160405190810160405280929190818152602001828054600181600116156101000203166002900480156101e75780601f106101bc576101008083540402835291602001916101e7565b820191906000526020600020905b8154815290600101906020018083116101ca57829003601f168201915b505050505081525050905090565b3090565b60008054604080516020601f600260001961010060018816150201909516949094049384018190048102820181019092528281529183918301828280156102815780601f1061025657610100808354040283529160200191610281565b820191906000526020600020905b81548152906001019060200180831161026457829003601f168201915b505050505090806001018054600181600116156101000203166002900480601f01602080910402602001604051908101604052809291908181526020018280546001816001161561010002031660029004801561031f5780601f106102f45761010080835404028352916020019161031f565b820191906000526020600020905b81548152906001019060200180831161030257829003601f168201915b5050505050905082565b604051806040016040528060608152602001606081525090565b60008151808452815b818110156103685760208185018101518683018201520161034c565b818111156103795782602083870101525b50601f01601f19169290920160200192915050565b73ffffffffffffffffffffffffffffffffffffffff91909116815260200190565b6000604082526103c26040830185610343565b82810360208401526103d48185610343565b95945050505050565b6000602082528251604060208401526103f96060840182610343565b60208501519150601f198482030160408501526103d4818361034356fea2646970667358221220465b874ab595fb8c6a974df1f240982fbb427de6939026b5a7263aaa2d455fbf64736f6c63430006010033608060405234801561001057600080fd5b5060405161082838038061082883398101604081905261002f916103b7565b6040518061016001604052808c81526020018b600160a060020a031681526020018a600160a060020a03168152602001898152602001888152602001878152602001868152602001858152602001848152602001838152602001828152506000808201518160000190805190602001906100aa92919061016c565b50602082810151600183018054600160a060020a03928316600160a060020a0319918216179091556040850151600285018054919093169116179055606083015180516100fd92600385019201906101ea565b506080820151600482015560a0820151805161012391600584019160209091019061016c565b5060c0820151816006015560e082015181600701556101008201518160080155610120820151816009015561014082015181600a015590505050505050505050505050506104cb565b828054600181600116156101000203166002900490600052602060002090601f016020900481019282601f106101ad57805160ff19168380011785556101da565b828001600101855582156101da579182015b828111156101da5782518255916020019190600101906101bf565b506101e692915061024b565b5090565b82805482825590600052602060002090810192821561023f579160200282015b8281111561023f5782518254600160a060020a031916600160a060020a0390911617825560209092019160019091019061020a565b506101e6929150610268565b61026591905b808211156101e65760008155600101610251565b90565b61026591905b808211156101e6578054600160a060020a031916815560010161026e565b8051600160a060020a03811681146102a357600080fd5b92915050565b600082601f8301126102b9578081fd5b81516001604060020a038111156102ce578182fd5b60208082026102de8282016104a5565b838152935081840185830182870184018810156102fa57600080fd5b600092505b8483101561032557610311888261028c565b8252600192909201919083019083016102ff565b505050505092915050565b600082601f830112610340578081fd5b81516001604060020a03811115610355578182fd5b6020610369601f8301601f191682016104a5565b9250818352848183860101111561037f57600080fd5b60005b8281101561039d578481018201518482018301528101610382565b828111156103ae5760008284860101525b50505092915050565b60008060008060008060008060008060006101608c8e0312156103d8578687fd5b8b516001604060020a038111156103ed578788fd5b6103f98e828f01610330565b9b50506104098d60208e0161028c565b99506104188d60408e0161028c565b985060608c01516001604060020a03811115610432578788fd5b61043e8e828f016102a9565b98505060808c0151965060a08c01516001604060020a03811115610460578687fd5b61046c8e828f01610330565b96505060c08c0151945060e08c015193506101008c015192506101208c015191506101408c015190509295989b509295989b9093969950565b6040518181016001604060020a03811182821017156104c357600080fd5b604052919050565b61034e806104da6000396000f3fe608060405234801561001057600080fd5b5060043610610052577c0100000000000000000000000000000000000000000000000000000000600035046338cc48318114610057578063a10ffbed14610075575b600080fd5b61005f610093565b60405161006c9190610273565b60405180910390f35b61007d610097565b60405161006c9a99989796959493929190610294565b3090565b60008054604080516020601f6002600019610100600188161502019095169490940493840181900481028201810190925282815291839183018282801561011f5780601f106100f45761010080835404028352916020019161011f565b820191906000526020600020905b81548152906001019060200180831161010257829003601f168201915b50505050600183810154600280860154600487015460058801805460408051602061010099841615999099026000190190921695909504601f8101889004880282018801909552848152979873ffffffffffffffffffffffffffffffffffffffff95861698959093169650909491939290918301828280156101e25780601f106101b7576101008083540402835291602001916101e2565b820191906000526020600020905b8154815290600101906020018083116101c557829003601f168201915b50505050509080600601549080600701549080600801549080600901549080600a015490508a565b60008151808452815b8181101561022f57602081850181015186830182015201610213565b818111156102405782602083870101525b50601f017fffffffffffffffffffffffffffffffffffffffffffffffffffffffffffffffe0169290920160200192915050565b73ffffffffffffffffffffffffffffffffffffffff91909116815260200190565b60006101408083526102a88184018e61020a565b73ffffffffffffffffffffffffffffffffffffffff9150818d166020850152818c1660408501528a606085015283810360808501526102e7818b61020a565b60a085019990995250505060c081019490945260e0840192909252610100830152610120909101529594505050505056fea2646970667358221220be356f169e73bd7c5a992f6f95d8106c08d9c4431116399fc642af8a461816d864736f6c63430006010033608060405234801561001057600080fd5b506040516107db3803806107db83398101604081905261002f916101b7565b6040805161010081018252600160a060020a03808b168083528a821660208085018290528b8416958501869052928a1660608501819052608085018a905260a0850189905260c0850188905260e0850187905260008054600160a060020a0319908116909417815560018054851690931790925560028054841690961790955560038054909216909417905586519192916100d091600491908901906100ff565b5060a0820151816005015560c0820151816006015560e08201518160070155905050505050505050505061030e565b828054600181600116156101000203166002900490600052602060002090601f016020900481019282601f1061014057805160ff191683800117855561016d565b8280016001018555821561016d579182015b8281111561016d578251825591602001919060010190610152565b5061017992915061017d565b5090565b61019791905b808211156101795760008155600101610183565b90565b8051600160a060020a03811681146101b157600080fd5b92915050565b600080600080600080600080610100898b0312156101d3578384fd5b6101dd8a8a61019a565b97506101ec8a60208b0161019a565b96506101fb8a60408b0161019a565b955061020a8a60608b0161019a565b945060808901516001604060020a03811115610224578485fd5b808a018b601f820112610235578586fd5b8051915061024a610245836102bb565b610295565b8281528c602084840101111561025e578687fd5b61026f8360208301602085016102de565b60a08c015160c08d015160e0909d01519b9e9a9d50989b979a9099909650945050505050565b6040518181016001604060020a03811182821017156102b357600080fd5b604052919050565b60006001604060020a038211156102d0578081fd5b50601f01601f191660200190565b60005b838110156102f95781810151838201526020016102e1565b83811115610308576000848401525b50505050565b6104be8061031d6000396000f3fe608060405234801561001057600080fd5b506004361061005d577c0100000000000000000000000000000000000000000000000000000000600035046324a85aac811461006257806338cc483114610087578063dff675c21461009c575b600080fd5b61006a6100b1565b60405161007e989796959493929190610381565b60405180910390f35b61008f61018b565b60405161007e9190610360565b6100a461018f565b60405161007e91906103ec565b60008054600180546002805460035460048054604080516020601f6000199a851615610100029a909a0190931696909604978801829004820286018201905286855273ffffffffffffffffffffffffffffffffffffffff9788169895881697938416969290931694939290919083018282801561016f5780601f106101445761010080835404028352916020019161016f565b820191906000526020600020905b81548152906001019060200180831161015257829003601f168201915b5050505050908060050154908060060154908060070154905088565b3090565b61019761029a565b6040805161010080820183526000805473ffffffffffffffffffffffffffffffffffffffff9081168452600180548216602080870191909152600280548416878901526003549093166060870152600480548851601f60001995831615909802949094011693909304948501819004810282018101909652838152939491936080860193909283018282801561026e5780601f106102435761010080835404028352916020019161026e565b820191906000526020600020905b81548152906001019060200180831161025157829003601f168201915b505050505081526020016005820154815260200160068201548152602001600782015481525050905090565b60408051610100810182526000808252602082018190529181018290526060808201839052608082015260a0810182905260c0810182905260e081019190915290565b73ffffffffffffffffffffffffffffffffffffffff169052565b60008151808452815b8181101561031c57602081850181015186830182015201610300565b8181111561032d5782602083870101525b50601f017fffffffffffffffffffffffffffffffffffffffffffffffffffffffffffffffe0169290920160200192915050565b73ffffffffffffffffffffffffffffffffffffffff91909116815260200190565b600061010073ffffffffffffffffffffffffffffffffffffffff808c168452808b166020850152808a1660408501528089166060850152508060808401526103cb818401886102f7565b60a0840196909652505060c081019290925260e09091015295945050505050565b60006020825273ffffffffffffffffffffffffffffffffffffffff80845116602084015280602085015116604084015250604083015161042f60608401826102dd565b50606083015161044260808401826102dd565b5060808301516101008060a085015261045f6101208501836102f7565b60a086015160c086015260c086015160e086015260e0860151828601528093505050509291505056fea2646970667358221220d569873ff7fa5fbfc80d1a6fb7a1ebf788b783fcbe92b1ce5806e9183a32c8ca64736f6c63430006010033a2646970667358221220ce32a44fe5775998e2ba6f1b94d0948e7cbb684b3a766e782858ecb12bfe240a64736f6c63430006010033",
  "source": "// SPDX-License-Identifier: GPL-3.0\r\npragma experimental ABIEncoderV2;\r\npragma solidity ^0.6.1;\r\n\r\nimport './Product.sol';\r\nimport './ProductLib.sol';\r\nimport './TermSheet.sol';\r\nimport './TransporterLib.sol';\r\nimport './Transporter.sol';\r\nimport './DeliveryLib.sol';\r\nimport './Delivery.sol';\r\n\r\ncontract Supplier {\r\n    \r\n    struct Supplier_struct {\r\n        string name;\r\n        uint date_creation;\r\n        address supplier_address;\r\n    }\r\n\r\n    \r\n    \r\n    Supplier_struct private _supplier;\r\n    \r\n    address[] private products_address;\r\n    mapping(address => ProductContract) public _products;\r\n    \r\n    address[] private transporters_address;\r\n    mapping(address => Transporter) public _transporters;\r\n\r\n    address[] private deliveries_address;\r\n    mapping(address => Delivery) public deliveries;\r\n\r\n\r\n    modifier isInStore(address product_address){\r\n        require(address(_products[product_address]) != address(0), \"THIS PRODUCT IS NOT FOUND !\");\r\n        _;\r\n    }\r\n    \r\n    modifier isForMe(address sup) {\r\n        require(sup ==  _supplier.supplier_address, \"COULD NOT SEND ANY PROPOSAL !\");\r\n        _;\r\n    }\r\n\r\n    modifier isTransporter(address tr_address) {\r\n        require(address(_transporters[tr_address]) != address(0));\r\n        _;\r\n    }\r\n\r\n    modifier onlyOwner() {\r\n        require(msg.sender == _supplier.supplier_address);\r\n        _;\r\n    }\r\n    \r\n    event Termsheet(address indexed ts_address, address indexed seller, address indexed buyer);\r\n    event Deliver(address indexed delivery_address, address  client_address, address  supplier_address, address transporter);\r\n    \r\n    constructor(string memory name, address supplier_address) public {\r\n        _supplier = Supplier_struct(name, block.timestamp, supplier_address);\r\n    }\r\n    \r\n    function createProduct(string memory product_name, string memory product_category, uint256 price, string memory carac) public returns(address){\r\n        \r\n        ProductContract my_product = new ProductContract(product_name, product_category, price, msg.sender, carac);\r\n        _products[address(my_product)] = my_product;\r\n        products_address.push(address(my_product));\r\n        return address(my_product);\r\n    }\r\n\r\n    function sendProposal(address supplier, address product, uint unity) isForMe(supplier) isInStore(product) public view returns(uint256) {\r\n        ProductContract pr = _products[product];\r\n        Product.Pr memory data_product = pr.getProduct();\r\n        uint256 total_price = data_product.price * unity;\r\n        return total_price;\r\n    }\r\n\r\n    function createTermSheet(string memory issue, address sender, address receiver,  address [] memory products, uint tax, string memory incoterm, uint totalPrice, uint commission, uint date_creation, uint closing_date, uint compensation) public returns(address)  {\r\n        TermSheet ts = new TermSheet(issue, sender, receiver, products, tax, incoterm, totalPrice, commission, date_creation, closing_date, compensation);\r\n        emit Termsheet(ts.getAddress(), sender, receiver);\r\n        ts.getAddress();\r\n    }\r\n\r\n    function getProductByAddress(address pr_address) isInStore(pr_address) public view returns(Product.Pr memory) {\r\n        ProductContract pr = _products[pr_address];\r\n        return pr.getProduct();\r\n    }\r\n\r\n    function getAllProduct() public view returns(address [] memory) {\r\n        return products_address;\r\n    }\r\n\r\n    function getOwnersOfProduct(address pr_address) isInStore(pr_address) public view returns(address[] memory){\r\n        ProductContract pr = _products[pr_address];\r\n        return pr.getOwners();\r\n    }\r\n\r\n    function addOwnerToProduct(address pr_address, address new_owner) isInStore(pr_address) public {\r\n        ProductContract pr = _products[pr_address];\r\n        pr.addOwner(new_owner);\r\n    }\r\n\r\n    function createTransporter(string memory company_name, string memory type_transport) public returns(address) {\r\n        Transporter tr = new Transporter(company_name, type_transport);\r\n        _transporters[tr.getAddress()] = tr;\r\n        transporters_address.push(tr.getAddress());\r\n        return tr.getAddress();\r\n    }\r\n\r\n    function getTransporterByAddress(address transporter_address) isTransporter(transporter_address) public view returns(TransporterLib.TR memory) {\r\n        return _transporters[transporter_address].getTransporter();\r\n    }\r\n\r\n    function getAllTransporter() public view returns(address [] memory) {\r\n        return transporters_address;\r\n    }\r\n\r\n    function createDelivery(address client, address supplier, address transporter, address termsheet, string memory tracking_number, uint date_creation, uint date_start, uint date_end) public returns(address) {\r\n        Delivery dl = new Delivery(client, supplier, transporter, termsheet, tracking_number, date_creation, date_start, date_end);\r\n        emit Deliver(dl.getAddress(), client, supplier, transporter);\r\n        return dl.getAddress();\r\n    }\r\n\r\n    function getAllDeliveries() onlyOwner public view returns(address [] memory ) {\r\n        return deliveries_address;\r\n    }\r\n\r\n    function getDeliveryByAddress(address dl_address) onlyOwner public view returns(DeliveryLib.DL memory) {\r\n        return deliveries[dl_address].getDelivery();\r\n    }\r\n\r\n}",
  "sourcePath": "/home/tura/order-to-cash/contracts/Supplier.sol",
  "compiler": {
    "name": "solc",
    "version": "0.6.1+commit.e6f7d5a4.Emscripten.clang"
  },
  "schemaVersion": "3.4.3",
  "updatedAt": "2021-10-08T23:59:00.338Z",
  "networkType": "ethereum",
  "devdoc": {
    "methods": {}
  },
  "userdoc": {
    "methods": {}
  }
}