{
  "contractName": "TermSheet",
  "abi": [
    {
      "inputs": [
        {
          "internalType": "string",
          "name": "issue",
          "type": "string"
        },
        {
          "internalType": "address",
          "name": "sender",
          "type": "address"
        },
        {
          "internalType": "address",
          "name": "receiver",
          "type": "address"
        },
        {
          "internalType": "address[]",
          "name": "products",
          "type": "address[]"
        },
        {
          "internalType": "uint256",
          "name": "tax",
          "type": "uint256"
        },
        {
          "internalType": "string",
          "name": "incoterm",
          "type": "string"
        },
        {
          "internalType": "uint256",
          "name": "totalPrice",
          "type": "uint256"
        },
        {
          "internalType": "uint256",
          "name": "commission",
          "type": "uint256"
        },
        {
          "internalType": "uint256",
          "name": "date_creation",
          "type": "uint256"
        },
        {
          "internalType": "uint256",
          "name": "closing_date",
          "type": "uint256"
        },
        {
          "internalType": "uint256",
          "name": "compensation",
          "type": "uint256"
        }
      ],
      "stateMutability": "nonpayable",
      "type": "constructor"
    },
    {
      "inputs": [],
      "name": "term",
      "outputs": [
        {
          "internalType": "string",
          "name": "issue",
          "type": "string"
        },
        {
          "internalType": "address",
          "name": "sender",
          "type": "address"
        },
        {
          "internalType": "address",
          "name": "receiver",
          "type": "address"
        },
        {
          "internalType": "uint256",
          "name": "tax",
          "type": "uint256"
        },
        {
          "internalType": "string",
          "name": "incoterm",
          "type": "string"
        },
        {
          "internalType": "uint256",
          "name": "totalPrice",
          "type": "uint256"
        },
        {
          "internalType": "uint256",
          "name": "commission",
          "type": "uint256"
        },
        {
          "internalType": "uint256",
          "name": "date_creation",
          "type": "uint256"
        },
        {
          "internalType": "uint256",
          "name": "closing_date",
          "type": "uint256"
        },
        {
          "internalType": "uint256",
          "name": "compensation",
          "type": "uint256"
        }
      ],
      "stateMutability": "view",
      "type": "function"
    },
    {
      "inputs": [],
      "name": "getAddress",
      "outputs": [
        {
          "internalType": "address",
          "name": "",
          "type": "address"
        }
      ],
      "stateMutability": "view",
      "type": "function"
    }
  ],
  "bytecode": "0x608060405234801561001057600080fd5b5060405161082838038061082883398101604081905261002f916103b7565b6040518061016001604052808c81526020018b600160a060020a031681526020018a600160a060020a03168152602001898152602001888152602001878152602001868152602001858152602001848152602001838152602001828152506000808201518160000190805190602001906100aa92919061016c565b50602082810151600183018054600160a060020a03928316600160a060020a0319918216179091556040850151600285018054919093169116179055606083015180516100fd92600385019201906101ea565b506080820151600482015560a0820151805161012391600584019160209091019061016c565b5060c0820151816006015560e082015181600701556101008201518160080155610120820151816009015561014082015181600a015590505050505050505050505050506104cb565b828054600181600116156101000203166002900490600052602060002090601f016020900481019282601f106101ad57805160ff19168380011785556101da565b828001600101855582156101da579182015b828111156101da5782518255916020019190600101906101bf565b506101e692915061024b565b5090565b82805482825590600052602060002090810192821561023f579160200282015b8281111561023f5782518254600160a060020a031916600160a060020a0390911617825560209092019160019091019061020a565b506101e6929150610268565b61026591905b808211156101e65760008155600101610251565b90565b61026591905b808211156101e6578054600160a060020a031916815560010161026e565b8051600160a060020a03811681146102a357600080fd5b92915050565b600082601f8301126102b9578081fd5b81516001604060020a038111156102ce578182fd5b60208082026102de8282016104a5565b838152935081840185830182870184018810156102fa57600080fd5b600092505b8483101561032557610311888261028c565b8252600192909201919083019083016102ff565b505050505092915050565b600082601f830112610340578081fd5b81516001604060020a03811115610355578182fd5b6020610369601f8301601f191682016104a5565b9250818352848183860101111561037f57600080fd5b60005b8281101561039d578481018201518482018301528101610382565b828111156103ae5760008284860101525b50505092915050565b60008060008060008060008060008060006101608c8e0312156103d8578687fd5b8b516001604060020a038111156103ed578788fd5b6103f98e828f01610330565b9b50506104098d60208e0161028c565b99506104188d60408e0161028c565b985060608c01516001604060020a03811115610432578788fd5b61043e8e828f016102a9565b98505060808c0151965060a08c01516001604060020a03811115610460578687fd5b61046c8e828f01610330565b96505060c08c0151945060e08c015193506101008c015192506101208c015191506101408c015190509295989b509295989b9093969950565b6040518181016001604060020a03811182821017156104c357600080fd5b604052919050565b61034e806104da6000396000f3fe608060405234801561001057600080fd5b5060043610610052577c0100000000000000000000000000000000000000000000000000000000600035046338cc48318114610057578063a10ffbed14610075575b600080fd5b61005f610093565b60405161006c9190610273565b60405180910390f35b61007d610097565b60405161006c9a99989796959493929190610294565b3090565b60008054604080516020601f6002600019610100600188161502019095169490940493840181900481028201810190925282815291839183018282801561011f5780601f106100f45761010080835404028352916020019161011f565b820191906000526020600020905b81548152906001019060200180831161010257829003601f168201915b50505050600183810154600280860154600487015460058801805460408051602061010099841615999099026000190190921695909504601f8101889004880282018801909552848152979873ffffffffffffffffffffffffffffffffffffffff95861698959093169650909491939290918301828280156101e25780601f106101b7576101008083540402835291602001916101e2565b820191906000526020600020905b8154815290600101906020018083116101c557829003601f168201915b50505050509080600601549080600701549080600801549080600901549080600a015490508a565b60008151808452815b8181101561022f57602081850181015186830182015201610213565b818111156102405782602083870101525b50601f017fffffffffffffffffffffffffffffffffffffffffffffffffffffffffffffffe0169290920160200192915050565b73ffffffffffffffffffffffffffffffffffffffff91909116815260200190565b60006101408083526102a88184018e61020a565b73ffffffffffffffffffffffffffffffffffffffff9150818d166020850152818c1660408501528a606085015283810360808501526102e7818b61020a565b60a085019990995250505060c081019490945260e0840192909252610100830152610120909101529594505050505056fea2646970667358221220be356f169e73bd7c5a992f6f95d8106c08d9c4431116399fc642af8a461816d864736f6c63430006010033",
  "source": "pragma solidity ^0.6.1;\npragma experimental ABIEncoderV2;\n\ncontract TermSheet {\n\n    struct TermSheet_struct {\n        string issue;\n        address sender;\n        address receiver;\n        address [] products;\n        uint tax;\n        string incoterm;\n        uint totalPrice;\n        uint commission; \n        uint date_creation;\n        uint closing_date;\n        uint compensation;\n    }\n    \n    TermSheet_struct public term;\n\n    constructor(string memory issue, address sender, address receiver, address [] memory products, uint tax, string memory incoterm, uint totalPrice, uint commission, uint date_creation, uint closing_date, uint compensation) public {\n        term = TermSheet_struct(issue, sender, receiver, products, tax, incoterm, totalPrice, commission, date_creation, closing_date, compensation);\n    }\n\n    function getAddress() public view returns(address) {\n        return address(this);\n    }\n}",
  "sourcePath": "/home/tura/order-to-cash/contracts/TermSheet.sol",
  "compiler": {
    "name": "solc",
    "version": "0.6.1+commit.e6f7d5a4.Emscripten.clang"
  },
  "schemaVersion": "3.4.3",
  "updatedAt": "2021-10-08T12:11:00.014Z",
  "devdoc": {
    "methods": {}
  },
  "userdoc": {
    "methods": {}
  }
}