{
  "contractName": "Transporter",
  "abi": [
    {
      "inputs": [
        {
          "internalType": "string",
          "name": "company_name",
          "type": "string"
        },
        {
          "internalType": "string",
          "name": "type_transport",
          "type": "string"
        }
      ],
      "stateMutability": "nonpayable",
      "type": "constructor"
    },
    {
      "inputs": [],
      "name": "tr",
      "outputs": [
        {
          "internalType": "string",
          "name": "company_name",
          "type": "string"
        },
        {
          "internalType": "string",
          "name": "type_transport",
          "type": "string"
        }
      ],
      "stateMutability": "view",
      "type": "function"
    },
    {
      "inputs": [],
      "name": "getAddress",
      "outputs": [
        {
          "internalType": "address",
          "name": "",
          "type": "address"
        }
      ],
      "stateMutability": "view",
      "type": "function"
    },
    {
      "inputs": [],
      "name": "getTransporter",
      "outputs": [
        {
          "components": [
            {
              "internalType": "string",
              "name": "company_name",
              "type": "string"
            },
            {
              "internalType": "string",
              "name": "type_transport",
              "type": "string"
            }
          ],
          "internalType": "struct TransporterLib.TR",
          "name": "",
          "type": "tuple"
        }
      ],
      "stateMutability": "view",
      "type": "function"
    }
  ],
  "bytecode": "0x608060405234801561001057600080fd5b5060405161067138038061067183398101604081905261002f916101b6565b604080518082019091528281526020808201839052835160009161005791839187019061007b565b506020828101518051610070926001850192019061007b565b509050505050610216565b828054600181600116156101000203166002900490600052602060002090601f016020900481019282601f106100bc57805160ff19168380011785556100e9565b828001600101855582156100e9579182015b828111156100e95782518255916020019190600101906100ce565b506100f59291506100f9565b5090565b61011391905b808211156100f557600081556001016100ff565b90565b600082601f830112610126578081fd5b81516001604060020a038082111561013c578283fd5b6040516020601f8401601f191682018101838111838210171561015d578586fd5b8060405250819450838252868185880101111561017957600080fd5b600092505b8383101561019b578583018101518284018201529182019161017e565b838311156101ac5760008185840101525b5050505092915050565b600080604083850312156101c8578182fd5b82516001604060020a03808211156101de578384fd5b6101ea86838701610116565b935060208501519150808211156101ff578283fd5b5061020c85828601610116565b9150509250929050565b61044c806102256000396000f3fe608060405234801561001057600080fd5b506004361061005d577c010000000000000000000000000000000000000000000000000000000060003504631a1ad4c5811461006257806338cc483114610080578063c5917cbd14610095575b600080fd5b61006a6100ab565b60405161007791906103dd565b60405180910390f35b6100886101f5565b604051610077919061038e565b61009d6101f9565b6040516100779291906103af565b6100b3610329565b604080516000805460606020601f6002600019610100600187161502019094169390930492830181900402840181018552938301818152929391928492909184918401828280156101455780601f1061011a57610100808354040283529160200191610145565b820191906000526020600020905b81548152906001019060200180831161012857829003601f168201915b50505050508152602001600182018054600181600116156101000203166002900480601f0160208091040260200160405190810160405280929190818152602001828054600181600116156101000203166002900480156101e75780601f106101bc576101008083540402835291602001916101e7565b820191906000526020600020905b8154815290600101906020018083116101ca57829003601f168201915b505050505081525050905090565b3090565b60008054604080516020601f600260001961010060018816150201909516949094049384018190048102820181019092528281529183918301828280156102815780601f1061025657610100808354040283529160200191610281565b820191906000526020600020905b81548152906001019060200180831161026457829003601f168201915b505050505090806001018054600181600116156101000203166002900480601f01602080910402602001604051908101604052809291908181526020018280546001816001161561010002031660029004801561031f5780601f106102f45761010080835404028352916020019161031f565b820191906000526020600020905b81548152906001019060200180831161030257829003601f168201915b5050505050905082565b604051806040016040528060608152602001606081525090565b60008151808452815b818110156103685760208185018101518683018201520161034c565b818111156103795782602083870101525b50601f01601f19169290920160200192915050565b73ffffffffffffffffffffffffffffffffffffffff91909116815260200190565b6000604082526103c26040830185610343565b82810360208401526103d48185610343565b95945050505050565b6000602082528251604060208401526103f96060840182610343565b60208501519150601f198482030160408501526103d4818361034356fea2646970667358221220465b874ab595fb8c6a974df1f240982fbb427de6939026b5a7263aaa2d455fbf64736f6c63430006010033",
  "source": "pragma solidity ^0.6.1;\npragma experimental ABIEncoderV2;\n\nimport './TransporterLib.sol';\n\ncontract Transporter{\n\n    TransporterLib.TR public tr;\n\n    constructor(string memory company_name, string memory type_transport) public {\n        tr = TransporterLib.TR(company_name, type_transport);\n    }\n\n    function getAddress() public view returns(address) {\n        return address(this);\n    }\n\n    function getTransporter() public view returns(TransporterLib.TR memory) {\n        return tr;\n    }\n}",
  "sourcePath": "/home/tura/order-to-cash/contracts/Transporter.sol",
  "compiler": {
    "name": "solc",
    "version": "0.6.1+commit.e6f7d5a4.Emscripten.clang"
  },
  "schemaVersion": "3.4.3",
  "updatedAt": "2021-10-08T12:11:00.020Z",
  "devdoc": {
    "methods": {}
  },
  "userdoc": {
    "methods": {}
  }
}